{
  "contractName": "SushiItem",
  "abi": [
    {
      "inputs": [],
      "stateMutability": "nonpayable",
      "type": "constructor"
    },
    {
      "anonymous": false,
      "inputs": [
        {
          "indexed": true,
          "internalType": "address",
          "name": "account",
          "type": "address"
        },
        {
          "indexed": true,
          "internalType": "address",
          "name": "operator",
          "type": "address"
        },
        {
          "indexed": false,
          "internalType": "bool",
          "name": "approved",
          "type": "bool"
        }
      ],
      "name": "ApprovalForAll",
      "type": "event"
    },
    {
      "anonymous": false,
      "inputs": [
        {
          "indexed": true,
          "internalType": "address",
          "name": "operator",
          "type": "address"
        },
        {
          "indexed": true,
          "internalType": "address",
          "name": "from",
          "type": "address"
        },
        {
          "indexed": true,
          "internalType": "address",
          "name": "to",
          "type": "address"
        },
        {
          "indexed": false,
          "internalType": "uint256[]",
          "name": "ids",
          "type": "uint256[]"
        },
        {
          "indexed": false,
          "internalType": "uint256[]",
          "name": "values",
          "type": "uint256[]"
        }
      ],
      "name": "TransferBatch",
      "type": "event"
    },
    {
      "anonymous": false,
      "inputs": [
        {
          "indexed": true,
          "internalType": "address",
          "name": "operator",
          "type": "address"
        },
        {
          "indexed": true,
          "internalType": "address",
          "name": "from",
          "type": "address"
        },
        {
          "indexed": true,
          "internalType": "address",
          "name": "to",
          "type": "address"
        },
        {
          "indexed": false,
          "internalType": "uint256",
          "name": "id",
          "type": "uint256"
        },
        {
          "indexed": false,
          "internalType": "uint256",
          "name": "value",
          "type": "uint256"
        }
      ],
      "name": "TransferSingle",
      "type": "event"
    },
    {
      "anonymous": false,
      "inputs": [
        {
          "indexed": false,
          "internalType": "string",
          "name": "value",
          "type": "string"
        },
        {
          "indexed": true,
          "internalType": "uint256",
          "name": "id",
          "type": "uint256"
        }
      ],
      "name": "URI",
      "type": "event"
    },
    {
      "inputs": [],
      "name": "SALMON",
      "outputs": [
        {
          "internalType": "uint256",
          "name": "",
          "type": "uint256"
        }
      ],
      "stateMutability": "view",
      "type": "function"
    },
    {
      "inputs": [],
      "name": "TAMAGO",
      "outputs": [
        {
          "internalType": "uint256",
          "name": "",
          "type": "uint256"
        }
      ],
      "stateMutability": "view",
      "type": "function"
    },
    {
      "inputs": [],
      "name": "TOROTAKU",
      "outputs": [
        {
          "internalType": "uint256",
          "name": "",
          "type": "uint256"
        }
      ],
      "stateMutability": "view",
      "type": "function"
    },
    {
      "inputs": [],
      "name": "TUNA",
      "outputs": [
        {
          "internalType": "uint256",
          "name": "",
          "type": "uint256"
        }
      ],
      "stateMutability": "view",
      "type": "function"
    },
    {
      "inputs": [],
      "name": "UNI",
      "outputs": [
        {
          "internalType": "uint256",
          "name": "",
          "type": "uint256"
        }
      ],
      "stateMutability": "view",
      "type": "function"
    },
    {
      "inputs": [
        {
          "internalType": "address",
          "name": "account",
          "type": "address"
        },
        {
          "internalType": "uint256",
          "name": "id",
          "type": "uint256"
        }
      ],
      "name": "balanceOf",
      "outputs": [
        {
          "internalType": "uint256",
          "name": "",
          "type": "uint256"
        }
      ],
      "stateMutability": "view",
      "type": "function"
    },
    {
      "inputs": [
        {
          "internalType": "address[]",
          "name": "accounts",
          "type": "address[]"
        },
        {
          "internalType": "uint256[]",
          "name": "ids",
          "type": "uint256[]"
        }
      ],
      "name": "balanceOfBatch",
      "outputs": [
        {
          "internalType": "uint256[]",
          "name": "",
          "type": "uint256[]"
        }
      ],
      "stateMutability": "view",
      "type": "function"
    },
    {
      "inputs": [
        {
          "internalType": "address",
          "name": "account",
          "type": "address"
        },
        {
          "internalType": "address",
          "name": "operator",
          "type": "address"
        }
      ],
      "name": "isApprovedForAll",
      "outputs": [
        {
          "internalType": "bool",
          "name": "",
          "type": "bool"
        }
      ],
      "stateMutability": "view",
      "type": "function"
    },
    {
      "inputs": [
        {
          "internalType": "address",
          "name": "from",
          "type": "address"
        },
        {
          "internalType": "address",
          "name": "to",
          "type": "address"
        },
        {
          "internalType": "uint256[]",
          "name": "ids",
          "type": "uint256[]"
        },
        {
          "internalType": "uint256[]",
          "name": "amounts",
          "type": "uint256[]"
        },
        {
          "internalType": "bytes",
          "name": "data",
          "type": "bytes"
        }
      ],
      "name": "safeBatchTransferFrom",
      "outputs": [],
      "stateMutability": "nonpayable",
      "type": "function"
    },
    {
      "inputs": [
        {
          "internalType": "address",
          "name": "from",
          "type": "address"
        },
        {
          "internalType": "address",
          "name": "to",
          "type": "address"
        },
        {
          "internalType": "uint256",
          "name": "id",
          "type": "uint256"
        },
        {
          "internalType": "uint256",
          "name": "amount",
          "type": "uint256"
        },
        {
          "internalType": "bytes",
          "name": "data",
          "type": "bytes"
        }
      ],
      "name": "safeTransferFrom",
      "outputs": [],
      "stateMutability": "nonpayable",
      "type": "function"
    },
    {
      "inputs": [
        {
          "internalType": "address",
          "name": "operator",
          "type": "address"
        },
        {
          "internalType": "bool",
          "name": "approved",
          "type": "bool"
        }
      ],
      "name": "setApprovalForAll",
      "outputs": [],
      "stateMutability": "nonpayable",
      "type": "function"
    },
    {
      "inputs": [
        {
          "internalType": "bytes4",
          "name": "interfaceId",
          "type": "bytes4"
        }
      ],
      "name": "supportsInterface",
      "outputs": [
        {
          "internalType": "bool",
          "name": "",
          "type": "bool"
        }
      ],
      "stateMutability": "view",
      "type": "function"
    },
    {
      "inputs": [
        {
          "internalType": "uint256",
          "name": "_id",
          "type": "uint256"
        }
      ],
      "name": "uri",
      "outputs": [
        {
          "internalType": "string",
          "name": "",
          "type": "string"
        }
      ],
      "stateMutability": "view",
      "type": "function"
    },
    {
      "inputs": [
        {
          "internalType": "uint256",
          "name": "_tokenId",
          "type": "uint256"
        },
        {
          "internalType": "uint256",
          "name": "_amount",
          "type": "uint256"
        }
      ],
      "name": "mint",
      "outputs": [],
      "stateMutability": "nonpayable",
      "type": "function"
    },
    {
      "inputs": [
        {
          "internalType": "uint256[]",
          "name": "_tokenIds",
          "type": "uint256[]"
        },
        {
          "internalType": "uint256[]",
          "name": "_amounts",
          "type": "uint256[]"
        }
      ],
      "name": "mintBatch",
      "outputs": [],
      "stateMutability": "nonpayable",
      "type": "function"
    },
    {
      "inputs": [
        {
          "internalType": "string",
          "name": "_prefix",
          "type": "string"
        },
        {
          "internalType": "string",
          "name": "_suffix",
          "type": "string"
        }
      ],
      "name": "setBaseMetadataURI",
      "outputs": [],
      "stateMutability": "nonpayable",
      "type": "function"
    }
  ],
  "bytecode": "0x60806040523480156200001157600080fd5b506040518060200160405280600081525062000033816200017360201b60201c565b506040518060a001604052806067815260200162003e5d606791396004908051906020019062000065929190620005f0565b506040518060400160405280600f81526020017f2e6a736f6e3f616c743d6d65646961000000000000000000000000000000000081525060059080519060200190620000b3929190620005f0565b50620000d93360006064604051806020016040528060008152506200018f60201b60201c565b620000fe3360016064604051806020016040528060008152506200018f60201b60201c565b620001233360026064604051806020016040528060008152506200018f60201b60201c565b620001483360036064604051806020016040528060008152506200018f60201b60201c565b6200016d3360046064604051806020016040528060008152506200018f60201b60201c565b62000d6d565b80600290805190602001906200018b929190620005f0565b5050565b600073ffffffffffffffffffffffffffffffffffffffff168473ffffffffffffffffffffffffffffffffffffffff160362000201576040517f08c379a0000000000000000000000000000000000000000000000000000000008152600401620001f89062000727565b60405180910390fd5b6000620002136200035360201b60201c565b90506200024c816000876200022e886200035b60201b60201c565b6200023f886200035b60201b60201c565b87620003dc60201b60201c565b8260008086815260200190815260200160002060008773ffffffffffffffffffffffffffffffffffffffff1673ffffffffffffffffffffffffffffffffffffffff1681526020019081526020016000206000828254620002ad919062000782565b925050819055508473ffffffffffffffffffffffffffffffffffffffff16600073ffffffffffffffffffffffffffffffffffffffff168273ffffffffffffffffffffffffffffffffffffffff167fc3d58168c5ae7397731d063d5bbf3d657854427343f4c083240f7aacaa2d0f6287876040516200032d929190620007f0565b60405180910390a46200034c81600087878787620003e460201b60201c565b5050505050565b600033905090565b60606000600167ffffffffffffffff8111156200037d576200037c6200081d565b5b604051908082528060200260200182016040528015620003ac5781602001602082028036833780820191505090505b5090508281600081518110620003c757620003c66200084c565b5b60200260200101818152505080915050919050565b505050505050565b620004108473ffffffffffffffffffffffffffffffffffffffff16620005dd60201b620008a11760201c565b15620005d5578373ffffffffffffffffffffffffffffffffffffffff1663f23a6e6187878686866040518663ffffffff1660e01b81526004016200045995949392919062000964565b6020604051808303816000875af19250505080156200049857506040513d601f19601f8201168201806040525081019062000495919062000a34565b60015b6200054957620004a762000a73565b806308c379a0036200050a5750620004be62000ace565b80620004cb57506200050c565b806040517f08c379a000000000000000000000000000000000000000000000000000000000815260040162000501919062000bb5565b60405180910390fd5b505b6040517f08c379a0000000000000000000000000000000000000000000000000000000008152600401620005409062000c4f565b60405180910390fd5b63f23a6e6160e01b7bffffffffffffffffffffffffffffffffffffffffffffffffffffffff1916817bffffffffffffffffffffffffffffffffffffffffffffffffffffffff191614620005d3576040517f08c379a0000000000000000000000000000000000000000000000000000000008152600401620005ca9062000ce7565b60405180910390fd5b505b505050505050565b600080823b905060008111915050919050565b828054620005fe9062000d38565b90600052602060002090601f0160209004810192826200062257600085556200066e565b82601f106200063d57805160ff19168380011785556200066e565b828001600101855582156200066e579182015b828111156200066d57825182559160200191906001019062000650565b5b5090506200067d919062000681565b5090565b5b808211156200069c57600081600090555060010162000682565b5090565b600082825260208201905092915050565b7f455243313135353a206d696e7420746f20746865207a65726f2061646472657360008201527f7300000000000000000000000000000000000000000000000000000000000000602082015250565b60006200070f602183620006a0565b91506200071c82620006b1565b604082019050919050565b60006020820190508181036000830152620007428162000700565b9050919050565b6000819050919050565b7f4e487b7100000000000000000000000000000000000000000000000000000000600052601160045260246000fd5b60006200078f8262000749565b91506200079c8362000749565b9250827fffffffffffffffffffffffffffffffffffffffffffffffffffffffffffffffff03821115620007d457620007d362000753565b5b828201905092915050565b620007ea8162000749565b82525050565b6000604082019050620008076000830185620007df565b620008166020830184620007df565b9392505050565b7f4e487b7100000000000000000000000000000000000000000000000000000000600052604160045260246000fd5b7f4e487b7100000000000000000000000000000000000000000000000000000000600052603260045260246000fd5b600073ffffffffffffffffffffffffffffffffffffffff82169050919050565b6000620008a8826200087b565b9050919050565b620008ba816200089b565b82525050565b600081519050919050565b600082825260208201905092915050565b60005b83811015620008fc578082015181840152602081019050620008df565b838111156200090c576000848401525b50505050565b6000601f19601f8301169050919050565b60006200093082620008c0565b6200093c8185620008cb565b93506200094e818560208601620008dc565b620009598162000912565b840191505092915050565b600060a0820190506200097b6000830188620008af565b6200098a6020830187620008af565b620009996040830186620007df565b620009a86060830185620007df565b8181036080830152620009bc818462000923565b90509695505050505050565b6000604051905090565b600080fd5b60007fffffffff0000000000000000000000000000000000000000000000000000000082169050919050565b62000a0e81620009d7565b811462000a1a57600080fd5b50565b60008151905062000a2e8162000a03565b92915050565b60006020828403121562000a4d5762000a4c620009d2565b5b600062000a5d8482850162000a1d565b91505092915050565b60008160e01c9050919050565b600060033d111562000a955760046000803e62000a9260005162000a66565b90505b90565b62000aa38262000912565b810181811067ffffffffffffffff8211171562000ac55762000ac46200081d565b5b80604052505050565b600060443d1062000b665762000ae3620009c8565b60043d036004823e80513d602482011167ffffffffffffffff8211171562000b0d57505062000b66565b808201805167ffffffffffffffff81111562000b2d575050505062000b66565b80602083010160043d03850181111562000b4c57505050505062000b66565b62000b5d8260200185018662000a98565b82955050505050505b90565b600081519050919050565b600062000b818262000b69565b62000b8d8185620006a0565b935062000b9f818560208601620008dc565b62000baa8162000912565b840191505092915050565b6000602082019050818103600083015262000bd1818462000b74565b905092915050565b7f455243313135353a207472616e7366657220746f206e6f6e204552433131353560008201527f526563656976657220696d706c656d656e746572000000000000000000000000602082015250565b600062000c37603483620006a0565b915062000c448262000bd9565b604082019050919050565b6000602082019050818103600083015262000c6a8162000c28565b9050919050565b7f455243313135353a204552433131353552656365697665722072656a6563746560008201527f6420746f6b656e73000000000000000000000000000000000000000000000000602082015250565b600062000ccf602883620006a0565b915062000cdc8262000c71565b604082019050919050565b6000602082019050818103600083015262000d028162000cc0565b9050919050565b7f4e487b7100000000000000000000000000000000000000000000000000000000600052602260045260246000fd5b6000600282049050600182168062000d5157607f821691505b60208210810362000d675762000d6662000d09565b5b50919050565b6130e08062000d7d6000396000f3fe608060405234801561001057600080fd5b50600436106100ff5760003560e01c8063541bcb7611610097578063d72aa54b11610066578063d72aa54b146102ac578063e985e9c5146102ca578063f242432a146102fa578063fbe1862114610316576100ff565b8063541bcb761461023857806391bfbf6414610256578063a22cb46514610274578063d351cfdc14610290576100ff565b80631b2ef1ca116100d35780631b2ef1ca146101b25780631d2d1fb5146101ce5780632eb2c2d6146101ec5780634e1273f414610208576100ff565b8062fdd58e1461010457806301ffc9a71461013457806306f799d2146101645780630e89341c14610182575b600080fd5b61011e60048036038101906101199190611ab3565b610332565b60405161012b9190611b02565b60405180910390f35b61014e60048036038101906101499190611b75565b6103fa565b60405161015b9190611bbd565b60405180910390f35b61016c6104dc565b6040516101799190611b02565b60405180910390f35b61019c60048036038101906101979190611bd8565b6104e1565b6040516101a99190611c9e565b60405180910390f35b6101cc60048036038101906101c79190611cc0565b610518565b005b6101d6610537565b6040516101e39190611b02565b60405180910390f35b61020660048036038101906102019190611efd565b61053c565b005b610222600480360381019061021d919061208f565b6105dd565b60405161022f91906121c5565b60405180910390f35b6102406106f6565b60405161024d9190611b02565b60405180910390f35b61025e6106fb565b60405161026b9190611b02565b60405180910390f35b61028e60048036038101906102899190612213565b610700565b005b6102aa60048036038101906102a59190612253565b610716565b005b6102b4610735565b6040516102c19190611b02565b60405180910390f35b6102e460048036038101906102df91906122cb565b61073a565b6040516102f19190611bbd565b60405180910390f35b610314600480360381019061030f919061230b565b6107ce565b005b610330600480360381019061032b9190612443565b61086f565b005b60008073ffffffffffffffffffffffffffffffffffffffff168373ffffffffffffffffffffffffffffffffffffffff16036103a2576040517f08c379a00000000000000000000000000000000000000000000000000000000081526004016103999061252d565b60405180910390fd5b60008083815260200190815260200160002060008473ffffffffffffffffffffffffffffffffffffffff1673ffffffffffffffffffffffffffffffffffffffff16815260200190815260200160002054905092915050565b60007fd9b67a26000000000000000000000000000000000000000000000000000000007bffffffffffffffffffffffffffffffffffffffffffffffffffffffff1916827bffffffffffffffffffffffffffffffffffffffffffffffffffffffff191614806104c557507f0e89341c000000000000000000000000000000000000000000000000000000007bffffffffffffffffffffffffffffffffffffffffffffffffffffffff1916827bffffffffffffffffffffffffffffffffffffffffffffffffffffffff1916145b806104d557506104d4826108b4565b5b9050919050565b600281565b606060046104ee8361091e565b60056040516020016105029392919061267d565b6040516020818303038152906040529050919050565b61053333838360405180602001604052806000815250610a7e565b5050565b600181565b610544610c13565b73ffffffffffffffffffffffffffffffffffffffff168573ffffffffffffffffffffffffffffffffffffffff16148061058a575061058985610584610c13565b61073a565b5b6105c9576040517f08c379a00000000000000000000000000000000000000000000000000000000081526004016105c090612720565b60405180910390fd5b6105d68585858585610c1b565b5050505050565b60608151835114610623576040517f08c379a000000000000000000000000000000000000000000000000000000000815260040161061a906127b2565b60405180910390fd5b6000835167ffffffffffffffff8111156106405761063f611d05565b5b60405190808252806020026020018201604052801561066e5781602001602082028036833780820191505090505b50905060005b84518110156106eb576106bb858281518110610693576106926127d2565b5b60200260200101518583815181106106ae576106ad6127d2565b5b6020026020010151610332565b8282815181106106ce576106cd6127d2565b5b602002602001018181525050806106e490612830565b9050610674565b508091505092915050565b600481565b600081565b61071261070b610c13565b8383610f2e565b5050565b6107313383836040518060200160405280600081525061109a565b5050565b600381565b6000600160008473ffffffffffffffffffffffffffffffffffffffff1673ffffffffffffffffffffffffffffffffffffffff16815260200190815260200160002060008373ffffffffffffffffffffffffffffffffffffffff1673ffffffffffffffffffffffffffffffffffffffff16815260200190815260200160002060009054906101000a900460ff16905092915050565b6107d6610c13565b73ffffffffffffffffffffffffffffffffffffffff168573ffffffffffffffffffffffffffffffffffffffff16148061081c575061081b85610816610c13565b61073a565b5b61085b576040517f08c379a0000000000000000000000000000000000000000000000000000000008152600401610852906128ea565b60405180910390fd5b61086885858585856112b7565b5050505050565b8160049080519060200190610885929190611968565b50806005908051906020019061089c929190611968565b505050565b600080823b905060008111915050919050565b60007f01ffc9a7000000000000000000000000000000000000000000000000000000007bffffffffffffffffffffffffffffffffffffffffffffffffffffffff1916827bffffffffffffffffffffffffffffffffffffffffffffffffffffffff1916149050919050565b606060008203610965576040518060400160405280600181526020017f30000000000000000000000000000000000000000000000000000000000000008152509050610a79565b600082905060005b6000821461099757808061098090612830565b915050600a826109909190612939565b915061096d565b60008167ffffffffffffffff8111156109b3576109b2611d05565b5b6040519080825280601f01601f1916602001820160405280156109e55781602001600182028036833780820191505090505b5090505b60008514610a72576001826109fe919061296a565b9150600a85610a0d919061299e565b6030610a1991906129cf565b60f81b818381518110610a2f57610a2e6127d2565b5b60200101907effffffffffffffffffffffffffffffffffffffffffffffffffffffffffffff1916908160001a905350600a85610a6b9190612939565b94506109e9565b8093505050505b919050565b600073ffffffffffffffffffffffffffffffffffffffff168473ffffffffffffffffffffffffffffffffffffffff1603610aed576040517f08c379a0000000000000000000000000000000000000000000000000000000008152600401610ae490612a97565b60405180910390fd5b6000610af7610c13565b9050610b1881600087610b0988611538565b610b1288611538565b876115b2565b8260008086815260200190815260200160002060008773ffffffffffffffffffffffffffffffffffffffff1673ffffffffffffffffffffffffffffffffffffffff1681526020019081526020016000206000828254610b7791906129cf565b925050819055508473ffffffffffffffffffffffffffffffffffffffff16600073ffffffffffffffffffffffffffffffffffffffff168273ffffffffffffffffffffffffffffffffffffffff167fc3d58168c5ae7397731d063d5bbf3d657854427343f4c083240f7aacaa2d0f628787604051610bf5929190612ab7565b60405180910390a4610c0c816000878787876115ba565b5050505050565b600033905090565b8151835114610c5f576040517f08c379a0000000000000000000000000000000000000000000000000000000008152600401610c5690612b52565b60405180910390fd5b600073ffffffffffffffffffffffffffffffffffffffff168473ffffffffffffffffffffffffffffffffffffffff1603610cce576040517f08c379a0000000000000000000000000000000000000000000000000000000008152600401610cc590612be4565b60405180910390fd5b6000610cd8610c13565b9050610ce88187878787876115b2565b60005b8451811015610e99576000858281518110610d0957610d086127d2565b5b602002602001015190506000858381518110610d2857610d276127d2565b5b60200260200101519050600080600084815260200190815260200160002060008b73ffffffffffffffffffffffffffffffffffffffff1673ffffffffffffffffffffffffffffffffffffffff16815260200190815260200160002054905081811015610dc9576040517f08c379a0000000000000000000000000000000000000000000000000000000008152600401610dc090612c76565b60405180910390fd5b81810360008085815260200190815260200160002060008c73ffffffffffffffffffffffffffffffffffffffff1673ffffffffffffffffffffffffffffffffffffffff168152602001908152602001600020819055508160008085815260200190815260200160002060008b73ffffffffffffffffffffffffffffffffffffffff1673ffffffffffffffffffffffffffffffffffffffff1681526020019081526020016000206000828254610e7e91906129cf565b9250508190555050505080610e9290612830565b9050610ceb565b508473ffffffffffffffffffffffffffffffffffffffff168673ffffffffffffffffffffffffffffffffffffffff168273ffffffffffffffffffffffffffffffffffffffff167f4a39dc06d4c0dbc64b70af90fd698a233a518aa5d07e595d983b8c0526c8f7fb8787604051610f10929190612c96565b60405180910390a4610f26818787878787611791565b505050505050565b8173ffffffffffffffffffffffffffffffffffffffff168373ffffffffffffffffffffffffffffffffffffffff1603610f9c576040517f08c379a0000000000000000000000000000000000000000000000000000000008152600401610f9390612d3f565b60405180910390fd5b80600160008573ffffffffffffffffffffffffffffffffffffffff1673ffffffffffffffffffffffffffffffffffffffff16815260200190815260200160002060008473ffffffffffffffffffffffffffffffffffffffff1673ffffffffffffffffffffffffffffffffffffffff16815260200190815260200160002060006101000a81548160ff0219169083151502179055508173ffffffffffffffffffffffffffffffffffffffff168373ffffffffffffffffffffffffffffffffffffffff167f17307eab39ab6107e8899845ad3d59bd9653f200f220920489ca2b5937696c318360405161108d9190611bbd565b60405180910390a3505050565b600073ffffffffffffffffffffffffffffffffffffffff168473ffffffffffffffffffffffffffffffffffffffff1603611109576040517f08c379a000000000000000000000000000000000000000000000000000000000815260040161110090612a97565b60405180910390fd5b815183511461114d576040517f08c379a000000000000000000000000000000000000000000000000000000000815260040161114490612b52565b60405180910390fd5b6000611157610c13565b9050611168816000878787876115b2565b60005b845181101561122157838181518110611187576111866127d2565b5b60200260200101516000808784815181106111a5576111a46127d2565b5b6020026020010151815260200190815260200160002060008873ffffffffffffffffffffffffffffffffffffffff1673ffffffffffffffffffffffffffffffffffffffff168152602001908152602001600020600082825461120791906129cf565b92505081905550808061121990612830565b91505061116b565b508473ffffffffffffffffffffffffffffffffffffffff16600073ffffffffffffffffffffffffffffffffffffffff168273ffffffffffffffffffffffffffffffffffffffff167f4a39dc06d4c0dbc64b70af90fd698a233a518aa5d07e595d983b8c0526c8f7fb8787604051611299929190612c96565b60405180910390a46112b081600087878787611791565b5050505050565b600073ffffffffffffffffffffffffffffffffffffffff168473ffffffffffffffffffffffffffffffffffffffff1603611326576040517f08c379a000000000000000000000000000000000000000000000000000000000815260040161131d90612be4565b60405180910390fd5b6000611330610c13565b905061135081878761134188611538565b61134a88611538565b876115b2565b600080600086815260200190815260200160002060008873ffffffffffffffffffffffffffffffffffffffff1673ffffffffffffffffffffffffffffffffffffffff168152602001908152602001600020549050838110156113e7576040517f08c379a00000000000000000000000000000000000000000000000000000000081526004016113de90612c76565b60405180910390fd5b83810360008087815260200190815260200160002060008973ffffffffffffffffffffffffffffffffffffffff1673ffffffffffffffffffffffffffffffffffffffff168152602001908152602001600020819055508360008087815260200190815260200160002060008873ffffffffffffffffffffffffffffffffffffffff1673ffffffffffffffffffffffffffffffffffffffff168152602001908152602001600020600082825461149c91906129cf565b925050819055508573ffffffffffffffffffffffffffffffffffffffff168773ffffffffffffffffffffffffffffffffffffffff168373ffffffffffffffffffffffffffffffffffffffff167fc3d58168c5ae7397731d063d5bbf3d657854427343f4c083240f7aacaa2d0f628888604051611519929190612ab7565b60405180910390a461152f8288888888886115ba565b50505050505050565b60606000600167ffffffffffffffff81111561155757611556611d05565b5b6040519080825280602002602001820160405280156115855781602001602082028036833780820191505090505b509050828160008151811061159d5761159c6127d2565b5b60200260200101818152505080915050919050565b505050505050565b6115d98473ffffffffffffffffffffffffffffffffffffffff166108a1565b15611789578373ffffffffffffffffffffffffffffffffffffffff1663f23a6e6187878686866040518663ffffffff1660e01b815260040161161f959493929190612dc3565b6020604051808303816000875af192505050801561165b57506040513d601f19601f820116820180604052508101906116589190612e32565b60015b61170057611667612e6c565b806308c379a0036116c3575061167b612e8e565b8061168657506116c5565b806040517f08c379a00000000000000000000000000000000000000000000000000000000081526004016116ba9190611c9e565b60405180910390fd5b505b6040517f08c379a00000000000000000000000000000000000000000000000000000000081526004016116f790612f90565b60405180910390fd5b63f23a6e6160e01b7bffffffffffffffffffffffffffffffffffffffffffffffffffffffff1916817bffffffffffffffffffffffffffffffffffffffffffffffffffffffff191614611787576040517f08c379a000000000000000000000000000000000000000000000000000000000815260040161177e90613022565b60405180910390fd5b505b505050505050565b6117b08473ffffffffffffffffffffffffffffffffffffffff166108a1565b15611960578373ffffffffffffffffffffffffffffffffffffffff1663bc197c8187878686866040518663ffffffff1660e01b81526004016117f6959493929190613042565b6020604051808303816000875af192505050801561183257506040513d601f19601f8201168201806040525081019061182f9190612e32565b60015b6118d75761183e612e6c565b806308c379a00361189a5750611852612e8e565b8061185d575061189c565b806040517f08c379a00000000000000000000000000000000000000000000000000000000081526004016118919190611c9e565b60405180910390fd5b505b6040517f08c379a00000000000000000000000000000000000000000000000000000000081526004016118ce90612f90565b60405180910390fd5b63bc197c8160e01b7bffffffffffffffffffffffffffffffffffffffffffffffffffffffff1916817bffffffffffffffffffffffffffffffffffffffffffffffffffffffff19161461195e576040517f08c379a000000000000000000000000000000000000000000000000000000000815260040161195590613022565b60405180910390fd5b505b505050505050565b8280546119749061257c565b90600052602060002090601f01602090048101928261199657600085556119dd565b82601f106119af57805160ff19168380011785556119dd565b828001600101855582156119dd579182015b828111156119dc5782518255916020019190600101906119c1565b5b5090506119ea91906119ee565b5090565b5b80821115611a075760008160009055506001016119ef565b5090565b6000604051905090565b600080fd5b600080fd5b600073ffffffffffffffffffffffffffffffffffffffff82169050919050565b6000611a4a82611a1f565b9050919050565b611a5a81611a3f565b8114611a6557600080fd5b50565b600081359050611a7781611a51565b92915050565b6000819050919050565b611a9081611a7d565b8114611a9b57600080fd5b50565b600081359050611aad81611a87565b92915050565b60008060408385031215611aca57611ac9611a15565b5b6000611ad885828601611a68565b9250506020611ae985828601611a9e565b9150509250929050565b611afc81611a7d565b82525050565b6000602082019050611b176000830184611af3565b92915050565b60007fffffffff0000000000000000000000000000000000000000000000000000000082169050919050565b611b5281611b1d565b8114611b5d57600080fd5b50565b600081359050611b6f81611b49565b92915050565b600060208284031215611b8b57611b8a611a15565b5b6000611b9984828501611b60565b91505092915050565b60008115159050919050565b611bb781611ba2565b82525050565b6000602082019050611bd26000830184611bae565b92915050565b600060208284031215611bee57611bed611a15565b5b6000611bfc84828501611a9e565b91505092915050565b600081519050919050565b600082825260208201905092915050565b60005b83811015611c3f578082015181840152602081019050611c24565b83811115611c4e576000848401525b50505050565b6000601f19601f8301169050919050565b6000611c7082611c05565b611c7a8185611c10565b9350611c8a818560208601611c21565b611c9381611c54565b840191505092915050565b60006020820190508181036000830152611cb88184611c65565b905092915050565b60008060408385031215611cd757611cd6611a15565b5b6000611ce585828601611a9e565b9250506020611cf685828601611a9e565b9150509250929050565b600080fd5b7f4e487b7100000000000000000000000000000000000000000000000000000000600052604160045260246000fd5b611d3d82611c54565b810181811067ffffffffffffffff82111715611d5c57611d5b611d05565b5b80604052505050565b6000611d6f611a0b565b9050611d7b8282611d34565b919050565b600067ffffffffffffffff821115611d9b57611d9a611d05565b5b602082029050602081019050919050565b600080fd5b6000611dc4611dbf84611d80565b611d65565b90508083825260208201905060208402830185811115611de757611de6611dac565b5b835b81811015611e105780611dfc8882611a9e565b845260208401935050602081019050611de9565b5050509392505050565b600082601f830112611e2f57611e2e611d00565b5b8135611e3f848260208601611db1565b91505092915050565b600080fd5b600067ffffffffffffffff821115611e6857611e67611d05565b5b611e7182611c54565b9050602081019050919050565b82818337600083830152505050565b6000611ea0611e9b84611e4d565b611d65565b905082815260208101848484011115611ebc57611ebb611e48565b5b611ec7848285611e7e565b509392505050565b600082601f830112611ee457611ee3611d00565b5b8135611ef4848260208601611e8d565b91505092915050565b600080600080600060a08688031215611f1957611f18611a15565b5b6000611f2788828901611a68565b9550506020611f3888828901611a68565b945050604086013567ffffffffffffffff811115611f5957611f58611a1a565b5b611f6588828901611e1a565b935050606086013567ffffffffffffffff811115611f8657611f85611a1a565b5b611f9288828901611e1a565b925050608086013567ffffffffffffffff811115611fb357611fb2611a1a565b5b611fbf88828901611ecf565b9150509295509295909350565b600067ffffffffffffffff821115611fe757611fe6611d05565b5b602082029050602081019050919050565b600061200b61200684611fcc565b611d65565b9050808382526020820190506020840283018581111561202e5761202d611dac565b5b835b8181101561205757806120438882611a68565b845260208401935050602081019050612030565b5050509392505050565b600082601f83011261207657612075611d00565b5b8135612086848260208601611ff8565b91505092915050565b600080604083850312156120a6576120a5611a15565b5b600083013567ffffffffffffffff8111156120c4576120c3611a1a565b5b6120d085828601612061565b925050602083013567ffffffffffffffff8111156120f1576120f0611a1a565b5b6120fd85828601611e1a565b9150509250929050565b600081519050919050565b600082825260208201905092915050565b6000819050602082019050919050565b61213c81611a7d565b82525050565b600061214e8383612133565b60208301905092915050565b6000602082019050919050565b600061217282612107565b61217c8185612112565b935061218783612123565b8060005b838110156121b857815161219f8882612142565b97506121aa8361215a565b92505060018101905061218b565b5085935050505092915050565b600060208201905081810360008301526121df8184612167565b905092915050565b6121f081611ba2565b81146121fb57600080fd5b50565b60008135905061220d816121e7565b92915050565b6000806040838503121561222a57612229611a15565b5b600061223885828601611a68565b9250506020612249858286016121fe565b9150509250929050565b6000806040838503121561226a57612269611a15565b5b600083013567ffffffffffffffff81111561228857612287611a1a565b5b61229485828601611e1a565b925050602083013567ffffffffffffffff8111156122b5576122b4611a1a565b5b6122c185828601611e1a565b9150509250929050565b600080604083850312156122e2576122e1611a15565b5b60006122f085828601611a68565b925050602061230185828601611a68565b9150509250929050565b600080600080600060a0868803121561232757612326611a15565b5b600061233588828901611a68565b955050602061234688828901611a68565b945050604061235788828901611a9e565b935050606061236888828901611a9e565b925050608086013567ffffffffffffffff81111561238957612388611a1a565b5b61239588828901611ecf565b9150509295509295909350565b600067ffffffffffffffff8211156123bd576123bc611d05565b5b6123c682611c54565b9050602081019050919050565b60006123e66123e1846123a2565b611d65565b90508281526020810184848401111561240257612401611e48565b5b61240d848285611e7e565b509392505050565b600082601f83011261242a57612429611d00565b5b813561243a8482602086016123d3565b91505092915050565b6000806040838503121561245a57612459611a15565b5b600083013567ffffffffffffffff81111561247857612477611a1a565b5b61248485828601612415565b925050602083013567ffffffffffffffff8111156124a5576124a4611a1a565b5b6124b185828601612415565b9150509250929050565b7f455243313135353a2062616c616e636520717565727920666f7220746865207a60008201527f65726f2061646472657373000000000000000000000000000000000000000000602082015250565b6000612517602b83611c10565b9150612522826124bb565b604082019050919050565b600060208201905081810360008301526125468161250a565b9050919050565b7f4e487b7100000000000000000000000000000000000000000000000000000000600052602260045260246000fd5b6000600282049050600182168061259457607f821691505b6020821081036125a7576125a661254d565b5b50919050565b600081905092915050565b60008190508160005260206000209050919050565b600081546125da8161257c565b6125e481866125ad565b945060018216600081146125ff576001811461261057612643565b60ff19831686528186019350612643565b612619856125b8565b60005b8381101561263b5781548189015260018201915060208101905061261c565b838801955050505b50505092915050565b600061265782611c05565b61266181856125ad565b9350612671818560208601611c21565b80840191505092915050565b600061268982866125cd565b9150612695828561264c565b91506126a182846125cd565b9150819050949350505050565b7f455243313135353a207472616e736665722063616c6c6572206973206e6f742060008201527f6f776e6572206e6f7220617070726f7665640000000000000000000000000000602082015250565b600061270a603283611c10565b9150612715826126ae565b604082019050919050565b60006020820190508181036000830152612739816126fd565b9050919050565b7f455243313135353a206163636f756e747320616e6420696473206c656e67746860008201527f206d69736d617463680000000000000000000000000000000000000000000000602082015250565b600061279c602983611c10565b91506127a782612740565b604082019050919050565b600060208201905081810360008301526127cb8161278f565b9050919050565b7f4e487b7100000000000000000000000000000000000000000000000000000000600052603260045260246000fd5b7f4e487b7100000000000000000000000000000000000000000000000000000000600052601160045260246000fd5b600061283b82611a7d565b91507fffffffffffffffffffffffffffffffffffffffffffffffffffffffffffffffff820361286d5761286c612801565b5b600182019050919050565b7f455243313135353a2063616c6c6572206973206e6f74206f776e6572206e6f7260008201527f20617070726f7665640000000000000000000000000000000000000000000000602082015250565b60006128d4602983611c10565b91506128df82612878565b604082019050919050565b60006020820190508181036000830152612903816128c7565b9050919050565b7f4e487b7100000000000000000000000000000000000000000000000000000000600052601260045260246000fd5b600061294482611a7d565b915061294f83611a7d565b92508261295f5761295e61290a565b5b828204905092915050565b600061297582611a7d565b915061298083611a7d565b92508282101561299357612992612801565b5b828203905092915050565b60006129a982611a7d565b91506129b483611a7d565b9250826129c4576129c361290a565b5b828206905092915050565b60006129da82611a7d565b91506129e583611a7d565b9250827fffffffffffffffffffffffffffffffffffffffffffffffffffffffffffffffff03821115612a1a57612a19612801565b5b828201905092915050565b7f455243313135353a206d696e7420746f20746865207a65726f2061646472657360008201527f7300000000000000000000000000000000000000000000000000000000000000602082015250565b6000612a81602183611c10565b9150612a8c82612a25565b604082019050919050565b60006020820190508181036000830152612ab081612a74565b9050919050565b6000604082019050612acc6000830185611af3565b612ad96020830184611af3565b9392505050565b7f455243313135353a2069647320616e6420616d6f756e7473206c656e6774682060008201527f6d69736d61746368000000000000000000000000000000000000000000000000602082015250565b6000612b3c602883611c10565b9150612b4782612ae0565b604082019050919050565b60006020820190508181036000830152612b6b81612b2f565b9050919050565b7f455243313135353a207472616e7366657220746f20746865207a65726f20616460008201527f6472657373000000000000000000000000000000000000000000000000000000602082015250565b6000612bce602583611c10565b9150612bd982612b72565b604082019050919050565b60006020820190508181036000830152612bfd81612bc1565b9050919050565b7f455243313135353a20696e73756666696369656e742062616c616e636520666f60008201527f72207472616e7366657200000000000000000000000000000000000000000000602082015250565b6000612c60602a83611c10565b9150612c6b82612c04565b604082019050919050565b60006020820190508181036000830152612c8f81612c53565b9050919050565b60006040820190508181036000830152612cb08185612167565b90508181036020830152612cc48184612167565b90509392505050565b7f455243313135353a2073657474696e6720617070726f76616c2073746174757360008201527f20666f722073656c660000000000000000000000000000000000000000000000602082015250565b6000612d29602983611c10565b9150612d3482612ccd565b604082019050919050565b60006020820190508181036000830152612d5881612d1c565b9050919050565b612d6881611a3f565b82525050565b600081519050919050565b600082825260208201905092915050565b6000612d9582612d6e565b612d9f8185612d79565b9350612daf818560208601611c21565b612db881611c54565b840191505092915050565b600060a082019050612dd86000830188612d5f565b612de56020830187612d5f565b612df26040830186611af3565b612dff6060830185611af3565b8181036080830152612e118184612d8a565b90509695505050505050565b600081519050612e2c81611b49565b92915050565b600060208284031215612e4857612e47611a15565b5b6000612e5684828501612e1d565b91505092915050565b60008160e01c9050919050565b600060033d1115612e8b5760046000803e612e88600051612e5f565b90505b90565b600060443d10612f1b57612ea0611a0b565b60043d036004823e80513d602482011167ffffffffffffffff82111715612ec8575050612f1b565b808201805167ffffffffffffffff811115612ee65750505050612f1b565b80602083010160043d038501811115612f03575050505050612f1b565b612f1282602001850186611d34565b82955050505050505b90565b7f455243313135353a207472616e7366657220746f206e6f6e204552433131353560008201527f526563656976657220696d706c656d656e746572000000000000000000000000602082015250565b6000612f7a603483611c10565b9150612f8582612f1e565b604082019050919050565b60006020820190508181036000830152612fa981612f6d565b9050919050565b7f455243313135353a204552433131353552656365697665722072656a6563746560008201527f6420746f6b656e73000000000000000000000000000000000000000000000000602082015250565b600061300c602883611c10565b915061301782612fb0565b604082019050919050565b6000602082019050818103600083015261303b81612fff565b9050919050565b600060a0820190506130576000830188612d5f565b6130646020830187612d5f565b81810360408301526130768186612167565b9050818103606083015261308a8185612167565b9050818103608083015261309e8184612d8a565b9050969550505050505056fea2646970667358221220ed2b25dc6e2d4f91fa171e99eb2b073d543269e303eb81fced041d5b08bd625964736f6c634300080d003368747470733a2f2f666972656261736573746f726167652e676f6f676c65617069732e636f6d2f76302f622f736f6c69646974792d73616e64626f782e61707073706f742e636f6d2f6f2f657263313135356578616d706c652532466d65746164617461253246",
  "immutableReferences": {},
  "source": "//sushiItem.sol\n//SPDX-License-Identifier: UNLICENSED\n\npragma solidity ^0.8.0;\n\n\nimport \"./token/ERC1155/ERC1155.sol\";\nimport \"./utils/Counters.sol\";\nimport \"./utils/Strings.sol\";\n\ncontract SushiItem is ERC1155 {\n    using Counters for Counters.Counter;\n    Counters.Counter private _tokenCounter;\n\n    //\n    uint256 public constant TUNA = 0;\n    uint256 public constant SALMON = 1;\n    uint256 public constant TOROTAKU = 2;\n    uint256 public constant TAMAGO = 3;\n    uint256 public constant UNI = 4;\n\n    string baseMetadataURIPrefix;\n    string baseMetadataURISuffix;\n\n    //constructor\n    constructor() ERC1155(\"\") {\n        baseMetadataURIPrefix = \"https://firebasestorage.googleapis.com/v0/b/solidity-sandbox.appspot.com/o/erc1155example%2Fmetadata%2F\";\n        baseMetadataURISuffix = \".json?alt=media\";\n\n        // TUNE -> 0\n        // tokenId0100\n        // msg.sender()\n\n        _mint(msg.sender, TUNA, 100, \"\");\n        _mint(msg.sender, SALMON, 100, \"\");\n        _mint(msg.sender, TOROTAKU, 100, \"\");\n        _mint(msg.sender, TAMAGO, 100, \"\");\n        _mint(msg.sender, UNI, 100, \"\");\n    }\n\n    function uri(uint256 _id) public view override returns (string memory) {\n        return string(abi.encodePacked(\n            baseMetadataURIPrefix,\n            Strings.toString(_id),\n            baseMetadataURISuffix\n        ));\n    } \n\n    function mint(uint256 _tokenId, uint256 _amount) public {\n        _mint(msg.sender, _tokenId, _amount, \"\");\n    }\n\n    function mintBatch(uint256[] memory _tokenIds, uint256[] memory _amounts) public {\n        _mintBatch(msg.sender, _tokenIds, _amounts, \"\");\n    }\n\n    function setBaseMetadataURI(string memory _prefix, string memory _suffix) public {\n        baseMetadataURIPrefix = _prefix;\n        baseMetadataURISuffix = _suffix;\n    }\n}\n\n",
  "sourcePath": "/Users/takagihrs/Desktop/MyProject/dapp/truffle-ganache/contracts/sushiItem.sol",
  "compiler": {
    "name": "solc",
    "version": "0.8.13+commit.abaa5c0e.Emscripten.clang"
  },
  "schemaVersion": "3.4.7",
  "updatedAt": "2022-04-22T02:20:45.814Z",
  "devdoc": {
    "kind": "dev",
    "methods": {
      "balanceOf(address,uint256)": {
        "details": "See {IERC1155-balanceOf}. Requirements: - `account` cannot be the zero address."
      },
      "balanceOfBatch(address[],uint256[])": {
        "details": "See {IERC1155-balanceOfBatch}. Requirements: - `accounts` and `ids` must have the same length."
      },
      "isApprovedForAll(address,address)": {
        "details": "See {IERC1155-isApprovedForAll}."
      },
      "safeBatchTransferFrom(address,address,uint256[],uint256[],bytes)": {
        "details": "See {IERC1155-safeBatchTransferFrom}."
      },
      "safeTransferFrom(address,address,uint256,uint256,bytes)": {
        "details": "See {IERC1155-safeTransferFrom}."
      },
      "setApprovalForAll(address,bool)": {
        "details": "See {IERC1155-setApprovalForAll}."
      },
      "supportsInterface(bytes4)": {
        "details": "See {IERC165-supportsInterface}."
      }
    },
    "version": 1
  },
  "userdoc": {
    "kind": "user",
    "methods": {},
    "version": 1
  }
}